:0302D900B2A522A9
:0302DC00C2A1229A
:0902D000D288D2A8D2AFD2B2222A
:03000300020006F2
:10000600C0E0C0F0C083C082C0D075D000C000C0C0
:0D00160001C002C003C004C005C006C00741
:10002300751E00751F0075200075210075220030B4
:10003300B203020121751F037520E820B21EE520DB
:10004300451F60187F017E001202C5E52015207050
:1000530002151FE520451F70E202012120B20302B1
:100063000109751F017520F430B21EE520451F609C
:10007300187F017E001202C5E52015207002151FAE
:10008300E520451F70E202012175210075210075ED
:100093001F0275205874064400701DE520451F603B
:1000A300177F017E001202C5E52015207002151F7F
:1000B300E520451F70DF8066751F0075201474FFEF
:1000C30060127F0A7E001202C5051EE51ED394143A
:1000D30040EC804A74002521F8C000E6C313D00029
:1000E300F6E51EC39408400974002521F8E6448010
:1000F300F6751E000521E521C3940840920521E50C
:1001030021C394044086E500F46500601175210065
:0E011300E521C39404500774002521F87600FE
:10012100D007D006D005D004D003D002D001D00032
:0B013100D0D0D082D083D0F0D0E032DC
:1002A50011083F065B4F666D7D077F6F777C395E72
:0302B5007971005C
:06013C008B198A1A891BD1
:10014200E4F51CED14F51DF51CE51CC39408507B69
:10015200E51CB40800504D900160F8282873020194
:100162007802017C0201800201840201880201906E
:100172000201980201A0D2A4800ED2A48012D2A4BD
:100182008016D2A4801AC2A4D2A3D2A28016C2A47C
:10019200D2A3C2A2800EC2A4C2A3D2A28006C2A4CB
:1001A200C2A3C2A2C3E51C951DFFE49400AB19AA29
:1001B2001AA91B8F82F58312025AF5807F647E0092
:0B01C2001202C5E4F580051C02014B91
:0101CD00220F
:0B02C500EF1FAC0670011E4C70F6220B
:10028700D3EF9400EE940040147D6E7C00ED1D705A
:0D029700011CED4C70F7EF1F70E61E80E3B8
:0102A4002237
:0C02B9001202DC7F3C7E001202C580F4C3
:030000000201CE2C
:0C01CE00787FE4F6D8FD7581220202154E
:10025A00BB010CE58229F582E5833AF583E0225059
:10026A0006E92582F8E622BBFE06E92582F8E222A3
:0D027A00E58229F582E5833AF583E49322BD
:1001DA000202B9E493A3F8E493A34003F68001F280
:1001EA0008DFF48029E493A3F85407240CC8C33326
:1001FA00C4540F4420C8834004F456800146F6DFF5
:10020A00E4800B01020408102040809002A5E47EDD
:10021A00019360BCA3FF543F30E509541FFEE493E9
:10022A00A360010ECF54C025E060A840B8E493A3B0
:10023A00FAE493A3F8E493A3C8C582C8CAC583CADB
:10024A00F0A3C8C582C8CAC583CADFE9DEE780BE93
:0102B8000045
:00000001FF
