:09063000D288D2A8D2AFD2B222C6
:03000300020006F2
:10000600C0E0C0F0C083C082C0D075D000C000C0C0
:0D00160001C002C003C004C005C006C00741
:10002300752E00752F007530007531007532003064
:10003300B20302011D752F037530E820B21EE530AF
:10004300452F60187F017E00120625E530153070BC
:1000530002152FE530452F70E202011D20B2030285
:100063000105752F017530F430B21EE530452F6060
:10007300187F017E00120625E53015307002152F1A
:10008300E530452F70E202011D75310075320075B0
:100093002F0275305820B21DE530452F60177F01C0
:1000A3007E00120625E53015307002152FE5304528
:1000B3002F70E28065752F0075301430B2127F0AFD
:1000C3007E00120625052EE52ED3941440ED804ABA
:1000D30074412531F8C000E6C313D000F6E52EC302
:1000E3009408400974412531F8E64480F6752E00E2
:1000F3000532E532C3940840960531E531C39404D3
:10010300408AE544F465436011753100744125313B
:0A011300F876000531E531B404F27E
:10011D00D007D006D005D004D003D002D001D00036
:0B012D00D0D0D082D083D0F0D0E032E0
:10054C00111D3F065B4F666D7D077F6F777C395EB3
:03055C00797100B2
:060368008B378A38893949
:10036E00E4F53AED14F53BF53AE53AC39408507BC3
:10037E00E53AB40800504D90038CF8282873020318
:10038E00A40203A80203AC0203B00203B40203BC2E
:10039E000203C40203CCD2A4800ED2A48012D2A433
:1003AE008016D2A4801AC2A4D2A3D2A28016C2A44E
:1003BE00D2A3C2A2800EC2A4C2A3D2A28006C2A49D
:1003CE00C2A3C2A2C3E53A953BFFE49400AB37AAA1
:1003DE0038A9398F82F5831204EAF5807F647E0096
:0B03EE00120625E4F580053A020377B3
:0103F90022E1
:09063900B2A57F3C7E00020625FB
:09064200C2A57F3C7E00020625E2
:03065000C2A12222
:03065300D2A1220F
:03065600C2A0221D
:03065900D2A0220A
:03065C00C2A62211
:03065F00D2A622FE
:03066200C2A7220A
:03066500D2A722F7
:1005E000C2A6C2A5C2A78F807F017E001205C2D21B
:0B05F000A77F017E001205C2C2A722F7
:0A057B00AB3DAA3EA93F1204D1FFD8
:10058500D2A6C2A5C2A78F807F017E001205C2D266
:0B059500A77F017E001205C2C2A72252
:100611007F381205E07F0C1205E07F061205E07FAE
:04062100010205E0ED
:05064B007F010205E043
:0802D5008F3C8B3D8A3E893FFE
:1002DD00E4F540EDD394014003020367E53C940F30
:1002ED005078EDC394015039AB3DAA3EA93F12049D
:1002FD00D16067C37410953CFFE540C39FE5405046
:10030D00062480253C8004253C24B0FF1205E01214
:10031D00057B7401253FF53FE4353EF53E054080F4
:10032D00C7AB3DAA3EA93F1204D1602EC3741095F0
:10033D003CFFE540C39FE540500624C0253C8004AA
:10034D00253C2470FF1205E012057B7401253FF555
:0A035D003FE4353EF53E054080C741
:010367002273
:10013800E4F5457590F7E59064F7602C7FE87E0359
:10014800120625AF90EF2449601124E0601224F0D4
:10015800601324707012754501800D75450580087F
:10016800754509800375450DE590B4F7FB7590FB5F
:10017800E59064FB602C7FE87E03120625AF90EFC4
:100188002445601124E0601224F06013247070127A
:10019800754502800D754506800875450A8003750A
:1001A800450EE590B4FBFB7590FDE59064FD602C71
:1001B8007FE87E03120625AF90EF2443601124E008
:1001C800601224F0601324707012754503800D7559
:1001D8004507800875450B800375450FE590B4FD0C
:1001E800FB7590FEE59064FE602C7FE87E031206A6
:1001F80025AF90EF2442601124E0601224F06013D0
:1002080024707012754504800D7545088008754581
:0D0218000C8003754510E590B4FEFBAF456A
:0102250022B6
:10055F00070F81838587898B8D0708808284868822
:0B056F008A8C07164751132004052159
:10051700E4FEC2B500C2B600D2B500EF1392B4EF45
:10052700C313FFD2B600C2B6000EBE08EEE4FEED5E
:100537001392B4EDC313FDD2B600C2B6000EBE08C7
:04054700EEC2B5004B
:01054B00228D
:10048600E4FEFDFBC2B500C2B600D2B500EF139282
:10049600B4EFC313FFD2B600C2B6000EBE08EEE438
:1004A600FEA2B4E433FDC43333335480FFEBC313ED
:1004B6004FFBD2B600C2B6000EBE08E5C2B500D2EA
:0A04C600B600C2B400D2B400AF03C8
:0104D0002209
:1005A000E4FCFD7F8E12051774082CF8E6FF741624
:1005B0002CF8E6FD1205170CBC07ED7D807F8E023E
:0205C00005171D
:1005FB00E4FC740F2CF8E6FF12048674162CF8A694
:05060B00070CBC07ED27
:0106100022C7
:0B062500EF1FAC0670011E4C70F622A7
:1005C200D3EF9400EE940040147D6E7C00ED1D701C
:0D05D200011CED4C70F7EF1F70E61E80E37A
:0105DF0022F9
:10022600E4F536120630120611E543C4540F241DB8
:10023600F8E6F533E543540F241DF8E6F534753535
:10024600767B007A0079337D06120368E533B43F86
:100256000AE534B439051206398003120653E5332C
:10026600B43F0AE534B45B05120650800312065308
:10027600E533B43F0AE534B4060512065680031288
:100286000659E533B43F0AE534B4070512065C8027
:100296000312065FE533B43F0AE534B47F05120660
:1002A600628003120665E533643F600302022FE5B0
:1002B60034647D600302022F1206627FA07E8612DE
:0F02C60006251206657FA07E8612062502022FEE
:030000000203FAFE
:0C03FA00787FE4F6D8FD758145020441CF
:1004D100BB010689828A83E0225002E722BBFE0229
:0904E100E32289828A83E493225C
:1004EA00BB010CE58229F582E5833AF583E02250C7
:1004FA0006E92582F8E622BBFE06E92582F8E22211
:0D050A00E58229F582E5833AF583E493222A
:10040600020226E493A3F8E493A34003F68001F2E4
:1004160008DFF48029E493A3F85407240CC8C333F7
:10042600C4540F4420C8834004F456800146F6DFC6
:10043600E4800B010204081020408090054CE47E05
:10044600019360BCA3FF543F30E509541FFEE493BB
:10045600A360010ECF54C025E060A840B8E493A382
:10046600FAE493A3F8E493A3C8C582C8CAC583CAAD
:10047600F0A3C8C582C8CAC583CADFE9DEE780BE65
:01057A000080
:00000001FF
