:09030E00D288D2A8D2AFD2B222EB
:03000300020006F2
:10000600C0E0C0F0C083C082C0D075D000C000C0C0
:0D00160001C002C003C004C005C006C00741
:10002300751900751A00751B00751C00751D0030CD
:10003300B20302011D751A03751BE820B21EE51BEE
:10004300451A60187F017E00120303E51B151B7020
:1000530002151AE51B451A70E202011D20B20302C4
:100063000105751A01751BF430B21EE51B451A60B4
:10007300187F017E00120303E51B151B7002151A7E
:10008300E51B451A70E202011D751C00751D007504
:100093001A02751B5820B21DE51B451A60177F0114
:1000A3007E00120303E51B151B7002151AE51B45A1
:1000B3001A70E28065751A00751B1430B2127F0A3C
:1000C3007E001203030519E519D3941440ED804A09
:1000D3007426251CF8C000E6C313D000F6E519C347
:1000E300940840097426251CF8E64480F675190027
:1000F300051DE51DC394084096051CE51CC3940427
:10010300408AE529F465286011751C007426251CB6
:0A011300F87600051CE51CB404F2A8
:10011D00D007D006D005D004D003D002D001D00036
:0B012D00D0D0D082D083D0F0D0E032E0
:1002EF0011083F065B4F666D7D077F6F777C395E28
:0302FF0079710012
:060138008B218A228923BD
:10013E00E4F524ED14F525F524E524C39408507B4D
:10014E00E524B40800504D90015CF8282873020194
:10015E007402017802017C02018002018402018C8A
:10016E0002019402019CD2A4800ED2A48012D2A4C9
:10017E008016D2A4801AC2A4D2A3D2A28016C2A480
:10018E00D2A3C2A2800EC2A4C2A3D2A28006C2A4CF
:10019E00C2A3C2A2C3E5249525FFE49400AB21AA15
:1001AE0022A9238F82F5831202A4F5807F647E003C
:0B01BE00120303E4F580052402014752
:0101C9002213
:09031700B2A57F3C7E0002030345
:03032000C2A12255
:03032300D2A12242
:0B030300EF1FAC0670011E4C70F622CC
:1002D100D3EF9400EE940040147D6E7C00ED1D7010
:0D02E100011CED4C70F7EF1F70E61E80E36E
:0102EE0022ED
:1002560012030EE528C4540F2408F8E6F51EE52817
:10026600540F2408F8E6F51F7520767B007A00798E
:100276001E7D06120138E51EB4710FE51FB4710A22
:100286001203177F3C7E00120303E51EB4060AE53F
:0E0296001FB4390512032080BA12032380B56D
:030000000201CA30
:0C01CA00787FE4F6D8FD7581290202114F
:1002A400BB010CE58229F582E5833AF583E022500F
:1002B40006E92582F8E622BBFE06E92582F8E22259
:0D02C400E58229F582E5833AF583E4932273
:1001D600020256E493A3F8E493A34003F68001F2E7
:1001E60008DFF48029E493A3F85407240CC8C3332A
:1001F600C4540F4420C8834004F456800146F6DFF9
:10020600E4800B01020408102040809002EFE47E97
:10021600019360BCA3FF543F30E509541FFEE493ED
:10022600A360010ECF54C025E060A840B8E493A3B4
:10023600FAE493A3F8E493A3C8C582C8CAC583CADF
:10024600F0A3C8C582C8CAC583CADFE9DEE780BE97
:0103020000FA
:00000001FF
