:0905FC00D288D2A8D2AFD2B222FB
:03000300020006F2
:10000600C0E0C0F0C083C082C0D075D000C000C0C0
:0D00160001C002C003C004C005C006C00741
:10002300750800750900750A00750B00750C003022
:10003300B20302011D750903750AE820B21EE50A21
:10004300450960187F017E001205F1E50A150A7063
:10005300021509E50A450970E202011D20B20302F7
:100063000105750901750AF430B21EE50A450960F8
:10007300187F017E001205F1E50A150A70021509C1
:10008300E50A450970E202011D750B00750C007548
:100093000902750A5820B21DE50A450960177F0158
:1000A3007E001205F1E50A150A70021509E50A45F5
:1000B3000970E28065750900750A1430B2127F0A6F
:1000C3007E001205F10508E508D3941440ED804A3B
:1000D300744D250BF8C000E6C313D000F6E508C342
:1000E30094084009744D250BF8E64480F675080022
:1000F300050CE50CC394084096050BE50BC394046B
:10010300408AE550F4654F6011750B00744D250B63
:0A011300F87600050BE50BB404F2CA
:10011D00D007D006D005D004D003D002D001D00036
:0B012D00D0D0D082D083D0F0D0E032E0
:10050800113C3F065B4F666D7D077F6F777C395ED8
:03051800797100F6
:0602B9008B228A23892438
:1002BF00E4F525ED14F526F525E525C39408507BC7
:1002CF00E525B40800504D9002DDF828287302028E
:1002DF00F50202F90202FD02030102030502030DFA
:1002EF0002031502031DD2A4800ED2A48012D2A441
:1002FF008016D2A4801AC2A4D2A3D2A28016C2A4FE
:10030F00D2A3C2A2800EC2A4C2A3D2A28006C2A44C
:10031F00C2A3C2A2C3E5259526FFE49400AB22AA8F
:10032F0023A9248F82F5831204A6F5807F647E00B3
:0B033F001205F1E4F58005250202C85C
:01034A002290
:09060500B2A57F3C7E000205F164
:09060E00C2A57F3C7E000205F14B
:03061C00C2A12256
:03061F00D2A12243
:03062200C2A02251
:03062500D2A0223E
:03062800C2A62245
:03062B00D2A62232
:03062E00C2A7223E
:03063100D2A7222B
:10059C00C2A6C2A5C2A78F807F017E0012057ED2A3
:0B05AC00A77F017E0012057EC2A7227F
:0A053700AB23AA24A92512048DFFAE
:10054100D2A6C2A5C2A78F807F017E0012057ED2EE
:0B055100A77F017E0012057EC2A722DA
:1005CD007F3812059C7F0C12059C7F0612059C7FBF
:0405DD000102059C76
:050617007F0102059CBB
:080226008F228B238A24892515
:10022E00E4F526EDD3940140030202B8E522940FC3
:10023E005078EDC394015039AB23AA24A92512049A
:10024E008D6067C374109522FFE526C39FE5265087
:10025E0006248025228004252224B0FF12059C123C
:10026E00053774012525F525E43524F5240526806A
:10027E00C7AB23AA24A92512048D602EC374109532
:10028E0022FFE526C39FE526500624C025228004C2
:10029E0025222470FF12059C12053774012525F5C1
:0A02AE0025E43524F524052680C759
:0102B8002223
:10013800E4F5517590F7E59064F7602C7FE87E034D
:100148001205F1AF90EF2449601124E0601224F009
:10015800601324707012755101800D755105800867
:10016800755109800375510DE590B4F7FB7590FB47
:10017800E59064FB602C7FE87E031205F1AF90EFF9
:100188002445601124E0601224F06013247070127A
:10019800755102800D755106800875510A800375E6
:1001A800510EE590B4FBFB7590FDE59064FD602C65
:1001B8007FE87E031205F1AF90EF2443601124E03D
:1001C800601224F0601324707012755103800D754D
:1001D8005107800875510B800375510FE590B4FDE8
:1001E800FB7590FEE59064FE602C7FE87E031205A7
:1001F800F1AF90EF2442601124E0601224F0601304
:1002080024707012755104800D755108800875515D
:0D0218000C8003755110E590B4FEFBAF5152
:0102250022B6
:10051B00072E81838587898B8D0727808284868828
:0B052B008A8C0735475113200405217E
:1004D300E4FEC2B500C2B600D2B500EF1392B4EF8A
:1004E300C313FFD2B600C2B6000EBE08EEE4FEEDA3
:1004F3001392B4EDC313FDD2B600C2B6000EBE080C
:04050300EEC2B5008F
:0105070022D1
:10044200E4FEFDFBC2B500C2B600D2B500EF1392C6
:10045200B4EFC313FFD2B600C2B6000EBE08EEE47C
:10046200FEA2B4E433FDC43333335480FFEBC31331
:100472004FFBD2B600C2B6000EBE08E5C2B500D22E
:0A048200B600C2B400D2B400AF030C
:01048C00224D
:10055C00E4FCFD7F8E1204D374272CF8E6FF74356F
:10056C002CF8E6FD1204D30CBC07ED7D807F8E02C7
:02057C0004D3A6
:1005B700E4FC742E2CF8E6FF12044274352CF8A6DE
:0505C700070CBC07ED6C
:0105CC00220C
:0B05F100EF1FAC0670011E4C70F622DC
:10057E00D3EF9400EE940040147D6E7C00ED1D7060
:0D058E00011CED4C70F7EF1F70E61E80E3BE
:01059B00223D
:1005E100446174653A323032352D31322D31390062
:1003D700E4F51012055C1205CD7BFF7A0579E1E49F
:1003E700FD7F011202261205B7E537C4540F243CDE
:1003F700F8E6F511E537540F243CF8E6F5127513C6
:1004070040E536C4540F243CF8E6F514E536540F9E
:10041700243CF8E6F515751640E535C4540F243C21
:10042700F8E6F517E535540F243CF8E6F5187B0098
:0B0437007A0079117D011202B980AB40
:0300000002034BAD
:0C034B00787FE4F6D8FD75815102039222
:10048D00BB010689828A83E0225002E722BBFE026D
:09049D00E32289828A83E49322A0
:1004A600BB010CE58229F582E5833AF583E022500B
:1004B60006E92582F8E622BBFE06E92582F8E22255
:0D04C600E58229F582E5833AF583E493226F
:100357000203D7E493A3F8E493A34003F68001F2E2
:1003670008DFF48029E493A3F85407240CC8C333A7
:10037700C4540F4420C8834004F456800146F6DF76
:10038700E4800B0102040810204080900508E47EF9
:10039700019360BCA3FF543F30E509541FFEE4936B
:1003A700A360010ECF54C025E060A840B8E493A332
:1003B700FAE493A3F8E493A3C8C582C8CAC583CA5D
:1003C700F0A3C8C582C8CAC583CADFE9DEE780BE15
:0105360000C4
:00000001FF
