:090E2A00D288D2A8D2AFD2B222C4
:03000300020800F0
:10080000C0E0C0F0C083C082C0D075D000C000C0BE
:0D08100001C002C003C004C005C006C0073F
:10081D00752E00752F007530007531007532003062
:10082D00B203020917752F037530E820B21EE530AB
:10083D00452F60187F017E00120E1FE530153070B8
:10084D0002152FE530452F70E202091720B2030281
:10085D0008FF752F017530F430B21EE530452F605D
:10086D00187F017E00120E1FE53015307002152F16
:10087D00E530452F70E202091775310075320075AC
:10088D002F0275305820B21DE530452F60177F01BE
:10089D007E00120E1FE53015307002152FE5304524
:1008AD002F70E28065752F0075301430B2127F0AFB
:1008BD007E00120E1F052EE52ED3941440ED804AB6
:1008CD0074412531F8C000E6C313D000F6E52EC300
:1008DD009408400974412531F8E64480F6752E00E0
:1008ED000532E532C3940840960531E531C39404D1
:1008FD00408AE544F465436011753100744125313A
:0A090D00F876000531E531B404F27C
:10091700D007D006D005D004D003D002D001D00034
:0B092700D0D0D082D083D0F0D0E032DE
:100D4600111D3F065B4F666D7D077F6F777C395EB1
:030D5600797100B0
:060B62008B378A38893947
:100B6800E4F53AED14F53BF53AE53AC39408507BC1
:100B7800E53AB40800504D900B86F8282873020B0C
:100B88009E020BA2020BA6020BAA020BAE020BB628
:100B9800020BBE020BC6D2A4800ED2A48012D2A42D
:100BA8008016D2A4801AC2A4D2A3D2A28016C2A44C
:100BB800D2A3C2A2800EC2A4C2A3D2A28006C2A49B
:100BC800C2A3C2A2C3E53A953BFFE49400AB37AA9F
:100BD80038A9398F82F583120CE4F5807F647E0092
:0B0BE800120E1FE4F580053A020B71AD
:010BF30022DF
:090E3300B2A57F3C7E00020E1FF7
:090E3C00C2A57F3C7E00020E1FDE
:030E4A00C2A12220
:030E4D00D2A1220D
:030E5000C2A0221B
:030E5300D2A02208
:030E5600C2A6220F
:030E5900D2A622FC
:030E5C00C2A72208
:030E5F00D2A722F5
:100DDA00C2A6C2A5C2A78F807F017E00120DBCD217
:0B0DEA00A77F017E00120DBCC2A722F3
:0A0D7500AB3DAA3EA93F120CCBFFD4
:100D7F00D2A6C2A5C2A78F807F017E00120DBCD262
:0B0D8F00A77F017E00120DBCC2A7224E
:100E0B007F38120DDA7F0C120DDA7F06120DDA7FA6
:040E1B0001020DDAE9
:050E45007F01020DDA3F
:080ACF008F3C8B3D8A3E893FFC
:100AD700E4F540EDD394014003020B61E53C940F2C
:100AE7005078EDC394015039AB3DAA3EA93F120C93
:100AF700CB6067C37410953CFFE540C39FE540504A
:100B0700062480253C8004253C24B0FF120DDA1210
:100B17000D757401253FF53FE4353EF53E054080F0
:100B2700C7AB3DAA3EA93F120CCB602EC3741095EC
:100B37003CFFE540C39FE540500624C0253C8004A8
:100B4700253C2470FF120DDA120D757401253FF54F
:0A0B57003FE4353EF53E054080C73F
:010B61002271
:10093200E4F5457590F7E59064F7602C7FE87E0357
:10094200120E1FAF90EF2449601124E0601224F0D0
:10095200601324707012754501800D75450580087D
:10096200754509800375450DE590B4F7FB7590FB5D
:10097200E59064FB602C7FE87E03120E1FAF90EFC0
:100982002445601124E0601224F060132470701278
:10099200754502800D754506800875450A80037508
:1009A200450EE590B4FBFB7590FDE59064FD602C6F
:1009B2007FE87E03120E1FAF90EF2443601124E004
:1009C200601224F0601324707012754503800D7557
:1009D2004507800875450B800375450FE590B4FD0A
:1009E200FB7590FEE59064FE602C7FE87E03120E9C
:1009F2001FAF90EF2442601124E0601224F06013D4
:100A020024707012754504800D754508800875457F
:0D0A12000C8003754510E590B4FEFBAF4568
:010A1F0022B4
:100D5900070F81838587898B8D0708808284868820
:0B0D69008A8C07164751132004052157
:100D1100E4FEC2B500C2B600D2B500EF1392B4EF43
:100D2100C313FFD2B600C2B6000EBE08EEE4FEED5C
:100D31001392B4EDC313FDD2B600C2B6000EBE08C5
:040D4100EEC2B50049
:010D4500228B
:100C8000E4FEFDFBC2B500C2B600D2B500EF139280
:100C9000B4EFC313FFD2B600C2B6000EBE08EEE436
:100CA000FEA2B4E433FDC43333335480FFEBC313EB
:100CB0004FFBD2B600C2B6000EBE08E5C2B500D2E8
:0A0CC000B600C2B400D2B400AF03C6
:010CCA002207
:100D9A00E4FCFD7F8E120D1174082CF8E6FF741620
:100DAA002CF8E6FD120D110CBC07ED7D807F8E023A
:020DBA000D1119
:100DF500E4FC740F2CF8E6FF120C8074162CF8A690
:050E0500070CBC07ED25
:010E0A0022C5
:0B0E1F00EF1FAC0670011E4C70F622A5
:100DBC00D3EF9400EE940040147D6E7C00ED1D701A
:0D0DCC00011CED4C70F7EF1F70E61E80E378
:010DD90022F7
:100A2000E4F536120E2A120E0BE543C4540F241DB2
:100A3000F8E6F533E543540F241DF8E6F534753533
:100A4000767B007A0079337D06120B62E533B43F82
:100A50000AE534B43905120E338003120E4DE53326
:100A6000B43F0AE534B45B05120E4A8003120E4D02
:100A7000E533B43F0AE534B40605120E5080031284
:100A80000E53E533B43F0AE534B40705120E568021
:100A900003120E59E533B43F0AE534B47F05120E54
:100AA0005C8003120E5FE533643F6003020A29E5B0
:100AB00034647D6003020A29120E5C7FA07E8612D8
:0F0AC0000E1F120E5F7FA07E86120E1F020A29E4
:03000000020BF4FC
:0C0BF400787FE4F6D8FD758145020C3BCB
:100CCB00BB010689828A83E0225002E722BBFE0227
:090CDB00E32289828A83E493225A
:100CE400BB010CE58229F582E5833AF583E02250C5
:100CF40006E92582F8E622BBFE06E92582F8E2220F
:0D0D0400E58229F582E5833AF583E4932228
:100C0000020A20E493A3F8E493A34003F68001F2E0
:100C100008DFF48029E493A3F85407240CC8C333F5
:100C2000C4540F4420C8834004F456800146F6DFC4
:100C3000E4800B0102040810204080900D46E47E01
:100C4000019360BCA3FF543F30E509541FFEE493B9
:100C5000A360010ECF54C025E060A840B8E493A380
:100C6000FAE493A3F8E493A3C8C582C8CAC583CAAB
:100C7000F0A3C8C582C8CAC583CADFE9DEE780BE63
:010D7400007E
:00000001FF
