:0906AF00D288D2A8D2AFD2B22247
:03000300020006F2
:10000600C0E0C0F0C083C082C0D075D000C000C0C0
:0D00160001C002C003C004C005C006C00741
:10002300752E00752F007530007531007532003064
:10003300B20302013D752F037530E820B21EE5308F
:10004300452F60187F017E001206A4E5301530703D
:1000530002152FE530452F70E202013D20B2030265
:10006300011D752F017530F430B21EE530452F6048
:10007300187F017E001206A4E53015307002152F9B
:10008300E530452F70E202013D753100C3E531943F
:100093000474809480400302011D753200C3E5326D
:1000A300940874809480506D752F0275305820B277
:1000B3001DE530452F60177F017E001206A4E53051
:1000C30015307002152FE530452F70E2806C752FC7
:1000D3000075301430B2167F0A7E001206A4052E76
:1000E300D3E52E94147480948040E9804D744125A7
:1000F30031F8C000E6C313D000F6C3E52E940874AC
:10010300809480400974412531F8E64480F6752EC9
:100113000005328088053102008FE544F4654360B1
:1001230019753100C3E531940474809480500B74C5
:0A013300412531F87600053180EA1D
:10013D00D007D006D005D004D003D002D001D00016
:0B014D00D0D0D082D083D0F0D0E032C0
:1005B900111D3F065B4F666D7D077F6F777C395E46
:0305C90079710045
:0603AD008B378A38893904
:1003B300E4F53AED14F53BF53AC3E53A9408748055
:1003C3009480507BE53AB40800504D9003D5F8284B
:1003D30028730203ED0203F10203F50203F902039A
:1003E300FD02040502040D020415D2A4800ED2A45A
:1003F3008012D2A48016D2A4801AC2A4D2A3D2A2FD
:100403008016C2A4D2A3C2A2800EC2A4C2A3D2A247
:100413008006C2A4C2A3C2A2C3E53A953BFFE494FB
:1004230000AB37AA38A9398F82F58312058CF58082
:0F0433007F647E001206A4E4F580053A0203BC44
:010442002297
:0906B800B2A57F3C7E000206A4FD
:0906C100C2A57F3C7E000206A4E4
:0306CF00C2A122A3
:0306D200D2A12290
:0306D500C2A0229E
:0306D800D2A0228B
:0306DB00C2A62292
:0306DE00D2A6227F
:0306E100C2A7228B
:0306E400D2A72278
:10067500C2A6C2A5C2A78F807F017E00120657D2EF
:0B068500A77F017E00120657C2A722CB
:0A061300AB3DAA3EA93F120573FF9C
:10061D00D2A6C2A5C2A78F807F017E00120657D237
:0B062D00A77F017E00120657C2A72223
:100690007F381206757F0C1206757F061206757F6D
:0406A00001020675D8
:0506CA007F010206752E
:08030B008F3C8B3D8A3E893FC7
:10031300E4F540EDFF7E00D39401748094804003A4
:100323000203ACE53C940F74809480507CC3EF943B
:1003330001748094805039AB3DAA3EA93F120573E6
:100343006067C37410953CFFE540C39FE5405006CA
:100353002480253C8004253C24B0FF120675120638
:10036300137401253FF53FE4353EF53E054080C754
:10037300AB3DAA3EA93F120573602EC37410953C92
:10038300FFE540C39FE540500624C0253C8004257B
:100393003C2470FF1206751206137401253FF53FC6
:0903A300E4353EF53E054080C73B
:0103AC00222E
:10015800E4F5457590F7AF90EF64F7602C7FE87E83
:10016800031206A4AF90EF2449601124E060122422
:10017800F0601324707012754501800D7545058077
:1001880008754509800375450DAF90EF64F770F960
:100198007590FBAF90EF64FB602C7FE87E0312063E
:1001A800A4AF90EF2445601124E0601224F060139E
:1001B80024707012754502800D75450680087545D6
:1001C8000A800375450EAF90EF64FB70F97590FDDA
:1001D800AF90EF64FD602C7FE87E031206A4AF9019
:1001E800EF2443601124E0601224F060132470703F
:1001F80012754503800D754507800875450B80030A
:1002080075450FAF90EF64FD70F97590FEAF90EFF4
:1002180064FE602C7FE87E031206A4AF90EF2442B0
:10022800601124E0601224F0601324707012754588
:1002380004800D754508800875450C8003754510C8
:09024800AF90EF64FE70F9AF45C0
:01025100228A
:1005CC00070F81838587898B8D07088082848688B5
:0B05DC008A8C071647511320040521EC
:10052C00E4FEC2B500C2B600D2B500EEC3940874A6
:10053C008094805011EF1392B4EFC313FFD2B60026
:10054C00C2B6000E80E5E4FEEEC39408748094807D
:10055C005011ED1392B4EDC313FDD2B600C2B60028
:06056C000E80E5C2B5009F
:010572002266
:1004CF00E4FEF9FDC2B500C2B600D2B500EEC3948A
:1004DF0008748094805011EF1392B4EFC313FFD2BE
:1004EF00B600C2B6000E80E5E4FEEEC39408748039
:1004FF009480501AA2B4E433F9C43333335480FFD9
:10050F00EDC3134FFDD2B600C2B6000E80DCC2B5EC
:0C051F0000D2B600C2B400D2B400AF0598
:01052B0022AD
:1005E800E4FCFD7F8E12052CECC394077480948084
:1005F800501274082CF8E6FF74162CF8E6FD120564
:0B0608002C0C80E47D807F8E02052C0E
:10063800E4FCECC39407748094805012740F2CF877
:0E064800E6FF1204CF74162CF8A6070C80E40F
:010656002281
:0B06A400EF1FAC0670011E4C70F62228
:10065700D3EF9400EE940040147D6E7C00ED1D7086
:0D066700011CED4C70F7EF1F70E61E80E3E4
:010674002263
:10025200E4F5361206AF120690E543C4540F241D8E
:10026200F8E6F533E543540F241DF8E6F534753509
:10027200767B007A0079337D061203ADE533643F65
:10028200700BE534643970051206B880031206D289
:10029200E533643F700BE534645B70051206CF8072
:1002A200031206D2E533643F700BE5346406700531
:1002B2001206D580031206D8E533643F700BE5348D
:1002C200640770051206DB80031206DEE533643F25
:1002D200700BE534647F70051206E180031206E4B8
:1002E200E533643F600302025BE534647D60030230
:1002F200025B1206E17FA07E861206A41206E47F4C
:09030200A07E861206A402025B33
:03000000020443B4
:0C044300787FE4F6D8FD75814502048A3C
:10057300BB010689828A83E0225002E722BBFE0286
:09058300E32289828A83E49322B9
:10058C00BB010CE58229F582E5833AF583E0225024
:10059C0006E92582F8E622BBFE06E92582F8E2226E
:0D05AC00E58229F582E5833AF583E4932288
:10044F00020252E493A3F8E493A34003F68001F26F
:10045F0008DFF48029E493A3F85407240CC8C333AE
:10046F00C4540F4420C8834004F456800146F6DF7D
:10047F00E4800B01020408102040809005B9E47E4F
:10048F00019360BCA3FF543F30E509541FFEE49372
:10049F00A360010ECF54C025E060A840B8E493A339
:1004AF00FAE493A3F8E493A3C8C582C8CAC583CA64
:1004BF00F0A3C8C582C8CAC583CADFE9DEE780BE1C
:0105E7000013
:00000001FF
