:09058E00D288D2A8D2AFD2B22269
:03000300020006F2
:10000600C0E0C0F0C083C082C0D075D000C000C0C0
:0D00160001C002C003C004C005C006C00741
:10002300751900751A00751B00751C00751D0030CD
:10003300B20302011D751A03751BE820B21EE51BEE
:10004300451A60187F017E00120583E51B151B709E
:1000530002151AE51B451A70E202011D20B20302C4
:100063000105751A01751BF430B21EE51B451A60B4
:10007300187F017E00120583E51B151B7002151AFC
:10008300E51B451A70E202011D751C00751D007504
:100093001A02751B5820B21DE51B451A60177F0114
:1000A3007E00120583E51B151B7002151AE51B451F
:1000B3001A70E28065751A00751B1430B2127F0A3C
:1000C3007E001205830519E519D3941440ED804A87
:1000D3007427251CF8C000E6C313D000F6E519C346
:1000E300940840097427251CF8E64480F675190026
:1000F300051DE51DC394084096051CE51CC3940427
:10010300408AE52AF465296011751C007427251CB3
:0A011300F87600051CE51CB404F2A8
:10011D00D007D006D005D004D003D002D001D00036
:0B012D00D0D0D082D083D0F0D0E032E0
:10055B0011083F065B4F666D7D077F6F777C395EB9
:03056B00797100A3
:060381008B228A2389246F
:10038700E4F525ED14F526F525E525C39408507BFE
:10039700E525B40800504D9003A5F82828730203FB
:1003A700BD0203C10203C50203C90203CD0203D57F
:1003B7000203DD0203E5D2A4800ED2A48012D2A4E8
:1003C7008016D2A4801AC2A4D2A3D2A28016C2A435
:1003D700D2A3C2A2800EC2A4C2A3D2A28006C2A484
:1003E700C2A3C2A2C3E5259526FFE49400AB22AAC7
:1003F70023A9248F82F5831204B8F5807F647E00D9
:0B040700120583E4F580052502039038
:0104120022C7
:09059700B2A57F3C7E0002058341
:0905A000C2A57F3C7E0002058328
:0305AE00C2A122C5
:0305B100D2A122B2
:0305B400C2A022C0
:0305B700D2A022AD
:0305BA00C2A622B4
:0305BD00D2A622A1
:0305C000C2A722AD
:0305C300D2A7229A
:10052800C2A6C2A5C2A78F807F017E0012050AD28B
:0B053800A77F017E0012050AC2A72267
:0A04E500AB23AA24A92512049FFFEF
:1004EF00D2A6C2A5C2A78F807F017E0012050AD2B5
:0B04FF00A77F017E0012050AC2A722A1
:10056F007F381205287F0C1205287F061205287F79
:04057F000102052848
:0505A9007F010205289E
:0802EE008F228B238A2489254D
:1002F600E4F526EDD394014003020380E522940F32
:100306005078EDC394015039AB23AA24A9251204D1
:100316009F6067C374109522FFE526C39FE52650AC
:1003260006248025228004252224B0FF12052812E7
:1003360004E574012525F525E43524F524052680F4
:10034600C7AB23AA24A92512049F602EC374109557
:1003560022FFE526C39FE526500624C025228004F9
:1003660025222470FF1205281204E574012525F5BF
:0A03760025E43524F524052680C790
:01038000225A
:10013800E4F52B7590F7E59064F7602C7FE87E0373
:10014800120583AF90EF2449601124E0601224F077
:10015800601324707012752B01800D752B058008B3
:10016800752B098003752B0DE590B4F7FB7590FB93
:10017800E59064FB602C7FE87E03120583AF90EF67
:100188002445601124E0601224F06013247070127A
:10019800752B02800D752B068008752B0A80037558
:1001A8002B0EE590B4FBFB7590FDE59064FD602C8B
:1001B8007FE87E03120583AF90EF2443601124E0AB
:1001C800601224F0601324707012752B03800D7573
:1001D8002B078008752B0B8003752B0FE590B4FD5A
:1001E800FB7590FEE59064FE602C7FE87E031205A7
:1001F80083AF90EF2442601124E0601224F0601372
:1002080024707012752B04800D752B088008752BCF
:0D0218000C8003752B10E590B4FEFBAF2B9E
:0102250022B6
:0B058300EF1FAC0670011E4C70F6224A
:10050A00D3EF9400EE940040147D6E7C00ED1D70D4
:0D051A00011CED4C70F7EF1F70E61E80E332
:0105270022B1
:1005430048656C6C6F20576F726C642100303132D8
:08055300333435363738390026
:10022600E4F52112058E12056F7BFF7A057943E40A
:10023600FDFF1202EE7BFF7A0579507D01E4FF1285
:1002460002EEE529C4540F2408F8E6F51EE5295404
:100256000F2408F8E6F51F7520767B007A00791ED4
:100266007D06120381E51EB43F0AE51FB439051267
:10027600059780031205B1E51EB43F0AE51FB45B7E
:10028600051205AE80031205B1E51EB43F0AE51F4F
:10029600B406051205B480031205B7E51EB43F0A7D
:1002A600E51FB407051205BA80031205BDE51EB4A5
:1002B6003F0AE51FB47F051205C080031205C3E59A
:1002C6001E643F6003020248E51F647D600302026C
:1002D600481205C07FA07E861205831205C37FA043
:0802E6007E8612058302024826
:03000000020413E4
:0C041300787FE4F6D8FD75812B02045AB6
:10049F00BB010689828A83E0225002E722BBFE025B
:0904AF00E32289828A83E493228E
:1004B800BB010CE58229F582E5833AF583E02250F9
:1004C80006E92582F8E622BBFE06E92582F8E22243
:0D04D800E58229F582E5833AF583E493225D
:10041F00020226E493A3F8E493A34003F68001F2CB
:10042F0008DFF48029E493A3F85407240CC8C333DE
:10043F00C4540F4420C8834004F456800146F6DFAD
:10044F00E4800B010204081020408090055BE47EDD
:10045F00019360BCA3FF543F30E509541FFEE493A2
:10046F00A360010ECF54C025E060A840B8E493A369
:10047F00FAE493A3F8E493A3C8C582C8CAC583CA94
:10048F00F0A3C8C582C8CAC583CADFE9DEE780BE4C
:01056E00008C
:00000001FF
